S01E00004D6963726F636F6E74726F6C6C6572735F5765656B312E7372656339
S113000045C0000058C0000056C0000054C00000A5
S113001052C0000050C000004EC000004CC00000A0
S11300204AC0000048C0000046C0000044C00000B0
S113003042C0000040C000003EC000003CC00000C0
S11300403AC0000038C0000036C0000034C00000D0
S113005032C0000030C000002EC000002CC00000E0
S11300602AC0000028C0000026C0000024C00000F0
S113007022C0000020C000001EC000001CC0000000
S11300801AC0000018C0000016C0000011241FBED2
S1130090CFEFD0E1DEBFCDBF11E0A0E0B1E0E2E1FF
S11300A0F1E000E00BBF02C007900D92A234B1074B
S11300B0D9F72BD02CC0A4CF181619066CF420E065
S11300C030E0EFECF7E03197F1F700C000002F5F6C
S11300D03F4F82179307A9F708950F931F93CF9368
S11300E0DF938FEF81BBC0E0D1E002E411E08881AF
S11300F082BB89819A81E0DF2396C017D107B9F7C3
S1130100DF91CF911F910F910895E7DFFECFF8940F
S1050110FFCF1B
S11301121864003C6400666400C36400C36400663F
S113012264003C640018640000C8000164000564B3
S11301320015640055C800D56400F56400FD640030
S1130142FFC800C364006664003C640018640000D5
S1050152C800DF
S9030000FC
