:1000000045C000004BC0000049C0000047C00000D0
:1000100045C0000043C0000041C000003FC00000D8
:100020003DC000003BC0000039C0000037C00000E8
:1000300035C0000033C0000031C000002FC00000F8
:100040002DC000002BC0000029C0000027C0000008
:1000500025C0000023C0000021C000001FC0000018
:100060001DC000001BC0000019C0000017C0000028
:1000700015C0000013C0000011C000000FC0000038
:100080000DC000000BC0000009C0000011241FBEFD
:10009000CFEFD0E1DEBFCDBF33D03DC0B1CF18161A
:1000A00019066CF420E030E0EFECF7E03197F1F75F
:1000B00000C000002F5F3F4F82179307A9F70895F4
:1000C000CF93DF9320E821BB2EEF24BB23B3213055
:1000D00031F0FC01208131812130310571F4EC01D6
:1000E00080E882BB84EF91E0DADF12BA84EF91E01E
:1000F000D6DF81E090E099838883DF91CF910895E6
:10010000CF93DF9300D0CDB7DEB71A821982CE012C
:0A0110000196D6DFFCCFF894FFCF74
:00000001FF
