:1000000045C0000058C0000056C0000054C00000A9
:1000100052C0000050C000004EC000004CC00000A4
:100020004AC0000048C0000046C0000044C00000B4
:1000300042C0000040C000003EC000003CC00000C4
:100040003AC0000038C0000036C0000034C00000D4
:1000500032C0000030C000002EC000002CC00000E4
:100060002AC0000028C0000026C0000024C00000F4
:1000700022C0000020C000001EC000001CC0000004
:100080001AC0000018C0000016C0000011241FBED6
:10009000CFEFD0E1DEBFCDBF11E0A0E0B1E0E2E400
:1000A000F1E000E00BBF02C007900D92A030B10755
:1000B000D9F736D044C0A4CF181619066CF420E046
:1000C00030E0EFECF7E03197F1F700C000002F5F70
:1000D0003F4F82179307A9F70895CF93DF93EC0161
:1000E00088819981892B39F485E590E0E5DF82B339
:1000F000880F82BB06C085E590E0DEDF82B386957F
:1001000082BB82B3803C21F481E090E099838883B4
:1001100082B3833011F419821882DF91CF91089550
:10012000CF93DF9300D0CDB7DEB78FEF81BB83E0F5
:1001300082BB1A821982CE010196CFDFFCCFF894E0
:02014000FFCFEF
:00000001FF
