:1000000045C0000058C0000056C0000054C00000A9
:1000100052C0000050C000004EC000004CC00000A4
:100020004AC0000048C0000046C0000044C00000B4
:1000300042C0000040C000003EC000003CC00000C4
:100040003AC0000038C0000036C0000034C00000D4
:1000500032C0000030C000002EC000002CC00000E4
:100060002AC0000028C0000026C0000024C00000F4
:1000700022C0000020C000001EC000001CC0000004
:100080001AC0000018C0000016C0000011241FBED6
:10009000CFEFD0E1DEBFCDBF11E0A0E0B1E0ECE9F1
:1000A000F4E000E00BBF02C007900D92A030B10752
:1000B000D9F750D0F1C1A4CFCF92DF92EF92FF9247
:1000C000CF93DF93EC01BC01992314F46F5F7F4F52
:1000D00075956795072E000C880B990BD7D011D119
:1000E0006B017C01BE0161707078772334F461503C
:1000F00071096E6F7F6F6F5F7F4F072E000C880B4B
:10010000990BC4D0A70196012AD08DD0AB014150E4
:10011000510921E030E0F90102C0EE0FFF1F4A95BE
:10012000E2F7CB0163E070E090D102C0220F331FF1
:100130008A95E2F7C9018E2B9F2B81BBC0FD02C0BF
:1001400022BB01C0E2BBDF91CF91FF90EF90DF9027
:10015000CF90089586E090E0AFDFFCCF5058BB27EA
:10016000AA270ED021C112D130F017D120F031F4DE
:100170009F3F11F41EF407C10EF4E095E7FBD4C0D5
:10018000E92F23D180F3BA17620773078407950715
:1001900018F071F49EF552C10EF4E0950B2EBA2FB3
:1001A000A02D0B01B90190010C01CA01A00111247D
:1001B000FF27591B99F0593F50F4503E68F11A1629
:1001C000F040A22F232F342F4427585FF3CF4695BA
:1001D00037952795A795F0405395C9F77EF41F16DC
:1001E000BA0B620B730B840BBAF09150A1F0FF0FA6
:1001F000BB1F661F771F881FC2F70EC0BA0F621F92
:10020000731F841F48F4879577956795B795F79581
:100210009E3F08F0B3CF9395880F08F09927EE0F13
:1002200097958795089504D06894B11108C10895F1
:10023000D4D088F09F5790F0B92F9927B751A0F0EC
:10024000D1F0660F771F881F991F1AF0BA95C9F76A
:1002500012C0B13081F0F2D0B1E00895EFC0672F45
:10026000782F8827B85F39F0B93FCCF3869577951A
:100270006795B395D9F73EF4909580957095619503
:100280007F4F8F4F9F4F0895E89409C097FB3EF42E
:1002900090958095709561957F4F8F4F9F4F9923D3
:1002A000A9F0F92F96E9BB279395F6958795779551
:1002B0006795B795F111F8CFFAF4BB0F11F460FF11
:1002C0001BC06F5F7F4F8F4F9F4F16C0882311F069
:1002D00096E911C0772321F09EE8872F762F05C07D
:1002E000662371F096E8862F70E060E02AF09A9518
:1002F000660F771F881FDAF7880F9695879597F90D
:10030000089585D080F09F3740F491110EF097C08A
:1003100060E070E080E89FEB089526F41B16611DF5
:10032000711D811D07C021C097F99F6780E870E0AB
:1003300060E00895882371F4772321F09850872B8B
:10034000762F07C0662311F499270DC09051862B94
:1003500070E060E02AF09A95660F771F881FDAF741
:10036000880F9695879597F908959F3F31F09150A2
:1003700020F4879577956795B795880F911D969589
:10038000879597F908959FEF80EC089500240A94CB
:100390001616170618060906089500240A94121660
:1003A0001306140605060895092E0394000C11F493
:1003B000882352F0BB0F40F4BF2B11F460FF04C040
:1003C0006F5F7F4F8F4F9F4F089557FD9058440F99
:1003D000551F59F05F3F71F04795880F97FB991FA4
:1003E00061F09F3F79F08795089512161306140661
:1003F000551FF2CF4695F1DF08C0161617061806EE
:10040000991FF1CF86957105610508940895E5DF80
:10041000A0F0BEE7B91788F4BB279F3860F4161622
:10042000B11D672F782F8827985FF7CF869577952E
:100430006795B11D93959639C8F30895E894BB2745
:1004400066277727CB0197F9089597FB072E16F4B7
:10045000009406D077FD08D00BD007FC05D03EF401
:10046000909581959F4F0895709561957F4F089560
:10047000AA1BBB1B51E107C0AA1FBB1FA617B707CA
:1004800010F0A61BB70B881F991F5A95A9F78095E6
:0C0490009095BC01CD010895F894FFCFB9
:00000001FF
