S01E00004D6963726F636F6E74726F6C6C6572735F5765656B312E7372656339
S113000045C0000058C0000056C0000054C00000A5
S113001052C0000050C000004EC000004CC00000A0
S11300204AC0000048C0000046C0000044C00000B0
S113003042C0000040C000003EC000003CC00000C0
S11300403AC0000038C0000036C0000034C00000D0
S113005032C0000030C000002EC000002CC00000E0
S11300602AC0000028C0000026C0000024C00000F0
S113007022C0000020C000001EC000001CC0000000
S11300801AC0000018C0000016C0000011241FBED2
S1130090CFEFD0E1DEBFCDBF11E0A0E0B1E0E6E8F4
S11300A0F1E000E00BBF02C007900D92A430B1074D
S11300B0D9F758D066C0A4CFFC019EEF94BB93B38C
S11300C0913069F481E090E020813181232B11F09B
S11300D080E090E09183808381E090E0089580E067
S11300E090E00895EF92FF920F931F93CF93DF93C5
S11300F01816190694F47B018C01C0E0D0E08FEC53
S113010097E00197F1F700C00000C701D5DF019720
S113011021F021960C171D0791F7DF91CF911F91C4
S11301200F91FF90EF900895CF93DF93EC0180E857
S113013081BB82BBE881F981EE0FFF1FE050FF4FC6
S1130140BE0180819181CEDF12BAE881F981EE0F80
S1130150FF1FE050FF4FBE0180819181C3DFDF911B
S1130160CF910895CF93DF9300D0CDB7DEB78FEF53
S113017081BB83E082BB1A821982CE010196D4DF4F
S1090180FCCFF894FFCF50
S1070186E803FA008C
S9030000FC
